:040000008FEF7FF00F
:10FF0000800F810F820F830F840F890F8A0F8B0F51
:10FF10008C0F8D0F920F930F940F950F960F000E6D
:10FF2000F66EFF0EF76E000EF86E00EE01F010EEAA
:10FF30001EF00900F5CFEEFFE550E150FAE10001B7
:10FF4000A2EF7FF0000E1F6E020EB6EC7FF0020EE5
:10FF5000DBEC7FF0030E256E8A0E246E560EE82E23
:10FF6000FED7242EFCD7252EFAD7F1D7226E040E09
:10FF7000226401D012002250020DF350150FD96EE9
:10FF8000DA6ADECF20F0DDCF21F020C0D9FF21C01A
:10FF9000DAFF1FC0DFFF2250020DF3500B0FD96EA6
:10FFA000DA6ADECF20F0DDCF21F020C0D9FF21C0FA
:10FFB000DAFFDF6A1200236E040E236401D0120000
:10FFC0002350020DF3500B0FD96EDA6ADECF1FF00B
:10FFD000DDCF20F01FC0D9FF20C0DAFF2350020D73
:10FFE000F3500B0FE16EE26AE6CF21F0E5CF22F08D
:10FFF00021C0E1FF22C0E2FFE750FF0ADF6E1200DE
:020000040020DA
:08000000FFFFFFFFFFFFFFFF00
:020000040030CA
:0E000000FF02091EFF8181FF0FC00FE00F40BD
:00000001FF
